:1000000012C021C020C01FC01EC01DC01CC01BC00C
:100010001AC019C018C017C016C015C014C013C02C
:1000200012C011C010C011241FBECFE5D4E0DEBF46
:10003000CDBF10E0A0E6B0E001C01D92A536B1072B
:10004000E1F7B7D0E6C0DCCF88B38F6388BB85B358
:100050008F6385BB82B3806F82BB089580B382FBC0
:10006000882780F991E08927089580B383FB88274A
:1000700080F991E08927089588B3807C88BB88B394
:100080006F73682B68BB089585B3807C85BB85B38F
:100090007F73782B75BB089592B39F7092BB22B388
:1000A00030E1839FC0011124282B22BB089588B71B
:1000B000816088BF08B600FEFDCF88B7816088BF29
:1000C00008B600FEFDCF08958111BECF88B3807CB5
:1000D00088BB85B3807C85BB82B38F7082BB08955B
:1000E000CF93DF93EB01807F803151F018F48823A8
:1000F000C1F158C08032A1F0803309F053C020C054
:10010000A3DFB3DF882331F088818F5F88838C334E
:1001100008F01882688179818A81DF91CF91ACCF14
:1001200093DFA3DF882331F089818F5F89838C334C
:1001300008F01982688179818A81DF91CF91A4CFFB
:1001400083DF93DF882339F08A818F5F8A838D3044
:1001500010F081E08A83688179818A81DF91CF9173
:100160009BCF80E0B1DF688179818A8185DF6881FA
:1001700079818A8189DF688179818A818DDF8881AF
:100180008F5F88838C3370F0188289818F5F8983B9
:100190008C3340F019828A818F5F8A838D3010F012
:1001A00081E08A83DF91CF91089583B7836083BF15
:1001B0000895109260008AE08093610081E080934E
:1001C0006400109263001092620081B3806F81BB63
:1001D00084B38F6384BB87B38F6387BB81B3837F13
:1001E00081BB82B38C6082BBE0DF62E670E080910D
:1001F000600076DF5CDF32DF8823B9F38091600036
:10020000805F80936000807F803479F71092600077
:06021000ECCFF894FFCFD3
:00000001FF
